:020000040800F2
:1000000020050020010100087317000805160008EC
:10001000711700082902000871190008000000008B
:10002000000000000000000000000000511800085F
:100030003902000800000000751700085318000876
:100040001B0100081B0100081B0100081B01000820
:100050001B0100081B0100081B0100081B01000810
:100060001B0100081B0100081B0100081B01000800
:100070002D0200081B0100081B0100081B010008DD
:100080001B0100081B0100081B0100081B010008E0
:100090001B0100081B0100081B0100081B010008D0
:1000A0001B0100081B0100081B0100081B010008C0
:1000B0001B0100081B0100081B0100081B010008B0
:1000C0001B0100081B0100081B0100081B010008A0
:1000D0001B0100081B0100081B0100081B01000890
:1000E0001B0100081B0100081B010008DFF80CD0F1
:1000F00000F02AF800480047B11900082005002048
:100100000648804706480047FEE7FEE7FEE7FEE7B1
:10011000FEE7FEE7FEE7FEE7FEE7FEE7B7180008AA
:10012000ED000008D2B201E000F8012B491EFBD21D
:1001300070470022F6E710B513460A4604461946F2
:10014000FFF7F0FF204610BD064C074D06E0E068C3
:1001500040F0010394E8070098471034AC42F6D30E
:10016000FFF7C8FF301A0008501A000870B504469F
:1001700000688168C943C9071CD1816821F0010169
:10018000816000F071FC05460FE000BF00F06CFCE0
:10019000401B022809D9A06A40F01000A062E06A62
:1001A00040F00100E062012070BD20688068C0431B
:1001B000C007EBD0002070BDF8B5002604460096BD
:1001C00000688168C943C90728D0816841F00101EE
:1001D0008160134813490068B0FBF1F000E0401E55
:1001E00000900028FBD100F03FFC054611E000BF65
:1001F00000F03AFC401B02280BD9A06A40F0100026
:10020000A062E06A40F00100E06284F8246001200E
:10021000F8BD20688068C043C007E9D10020F8BD60
:100220000C00002040420F00FEE70000014800F0F3
:100230003BBA00009800002070477047F8B50024D2
:10024000009490F824202546012A12D0012280F83B
:1002500024204A681F23072A0DD20668776B521E96
:1002600002EB820293409F430B6893401F437763E6
:1002700019E00220F8BD06680D2A0AD2376BD21F9A
:1002800002EB820293409F430B6893401F43376306
:1002900009E0F76A0D3A02EB820293409F430B6834
:1002A00093401F43F7620A68072306680A2A0AD3A5
:1002B000F7680A3A02EB420293409F438B689340EF
:1002C0001F43F76008E0376902EB420293409F4307
:1002D0008B6893401F4337610A68102A01D0112AA6
:1002E00020D1124B02689A4217D193681B0219D48D
:1002F000936843F4000393600968102912D10C49F4
:100300000C4A0968B1FBF2F101EB8101490000E000
:10031000491E00910029FBD104E0816A41F02001CF
:100320008162012480F824502046F8BD0024014059
:100330000C00002040420F00806A70470068C06CCB
:10034000704700002DE9F0414FF0000704003D46E2
:100350007ED0A06A002628B9E66284F82460204690
:1003600000F07EF82046FFF701FFA16AC90600D41D
:1003700020B1A06A40F01000A06269E0A16A21F4F7
:10038000885141F00201A1626268E169237B0A435E
:1003900047EA43010A43A1684FF48077B94209D084
:1003A000012907D05FF0000194F814C0BCF1010FDF
:1003B00002D00AE03946F7E7F3B1A36A43F020031D
:1003C000A362E36A43F00103E3622368D3F804C045
:1003D0002CF4694C4CEA010CC3F804C021688B680A
:1003E000DFF870C003EA0C0313438B60A168B942C5
:1003F0000BD0012909D00CE0DFF85CC0A3690CEB3D
:1004000043330B4343F40061DFE7218A0D05A5F573
:1004100080152168CB6A23F470032B43CB622168DB
:1004200089680E4B1940914208D1E662A16A21F019
:10043000020141F00101A162BDE8F081A06A20F053
:10044000020040F01000A062E06A40F00100E062AB
:100450000120F1E7FDF7E1FF00E0FFFFFE0E1FFFC7
:1004600000B585B0002100910191029103910068CF
:100470000E49884218D10E48816941F400718161AA
:10048000816901F400710491816941F00401816185
:100490008069694600F00400049002200090032067
:1004A0000190044800F0EAF905B000BD00240140C5
:1004B00000100240000801402DE9F84300260D46D7
:1004C0000446009600F0D0FA804620688168C9058D
:1004D00008D5A06A40F02000A06284F824600120C2
:1004E000BDE8F8834168C90503D4C06A10F4700FF1
:1004F00026D0022000F056FB38490968B1FBF0F71E
:100500002068036936490B424FEA61014FEAA112A4
:100510001BD1C3684FEA611C13EA0C0F15D10369A4
:100520000B4221D1C06810421ED114201FE0681C6C
:1005300006D045B300F098FAA0EB0800A84222D8F4
:10054000206800688007F2D52AE003690B4202D1D7
:10055000C168114206D0026922490A4206D1C06828
:10056000084203D1542002E0292000E0FC20474348
:10057000009813E0681C0ED02DB100F075FAA0EBC6
:100580000800A84207D9A06A40F00400A06284F8DD
:1005900024600320A4E70098401C0090B842E9D3EF
:1005A00021686FF012000860A06A40F40070A06239
:1005B00020688068C0F3424007280CD1207B50B9E6
:1005C000A06A20F48070A062A06AC00403D4A06A6C
:1005D00040F00100A062002082E700000C00002033
:1005E000244992244992240070B5044690F82400CE
:1005F00001280DD0012084F824002046FFF7DCFDFF
:1006000002004FF0000005D084F82400104670BDB1
:10061000022070BDA16A40F20123994341F4807128
:10062000A1621F4D23681F49AB4218D10E6816F412
:10063000702F14D0A66A46F48016A6620E6876055E
:1006400005D5A66A26F4005646F48056A662A66A28
:10065000F6040AD5E66A26F00606E66206E0A66A11
:1006600026F48016A6625E68E9E7E06284F824005A
:100670006FF00200186020688368C3F34243072BC1
:1006800005D1A84208D1096811F4702F04D08168FF
:1006900041F480118160B9E7816841F4A001F9E774
:1006A00000280140042401402DE9F05FC16B0C6873
:1006B00001680B68D0F840C0042202FA0CF2494DE0
:1006C000DFF824A1494E4A4FDFF828B1DFF828E1CE
:1006D00022422CD05A072AD50A68920603D40A6807
:1006E00022F004020A600168A94201D1042219E043
:1006F000514501D1402215E0B14202D14FF4806250
:1007000010E0B94202D14FF480420BE0594502D1CA
:100710004FF4802206E0714502D14FF4800201E0DF
:100720004FF080622F4908394A60C16A3BE04FF0C0
:10073000020808FA0CF818EA040F4FF000094FF00D
:10074000010235D05FEA837832D50B689B0605D469
:100750000B6823F00A030B6080F821200168A9428E
:1007600001D1022219E0514501D1202215E0B14208
:1007700002D14FF4007210E0B94202D14FF400529E
:100780000BE0594502D14FF4003206E0714502D129
:100790004FF4001201E04FF00072124908394A602C
:1007A00080F82090816A00291AD0BDE8F05F0847E0
:1007B000082505FA0CF5254212D01B0710D50B6849
:1007C00023F00E030B6090F84010C36B02FA01F1A6
:1007D0005960826380F8212080F82090016BE2E765
:1007E000BDE8F09F080002401C00024030000240BB
:1007F00044000240580002406C00024030B528B36B
:1008000008C8134914221944B1FBF2F18900C163ED
:1008100010498163022141771A6843F6F0718A43D7
:10082000D0E900142143D0E902452C432143046957
:100830002143446921438469214311431960002104
:100840004163012242770177084630BD012030BD67
:10085000F8FFFDBF0000024070B5044600F004F947
:100860000546601C02D004480078044400F0FCF8FF
:10087000401BA042FAD370BD000000202DE9F84FC4
:10088000DFF8B891002409F1040A0AF1040B2346A9
:100890000F270BF1040EC9E00125A5402A40AA420A
:1008A0007DD1674ED1F804C0ACEB0608B44532D018
:1008B00014DCBCF1030F3AD009DCBCF1000F2AD0E4
:1008C000BCF1010F1CD0BCF1020F31D11DE0BCF115
:1008D000110F17D0BCF1120F2AD119E0B8F5881FFB
:1008E00019D006DCB8F5803F15D0B8F5801F1FD1B0
:1008F00011E0B8F5001F0ED0B8F5041F18D10AE0BA
:10090000CB6815E0CB681B1D12E0CB6808330FE005
:10091000CB680C330CE08B682BB1012B4FF0080334
:1009200003D0456104E0042302E0056100E00023F8
:10093000FF2A01D8064601E000F104064FEA8405CB
:1009400001D9A5F12005D6F8008007FA05FC28EAB0
:100950000C0803FA05F548EA0508C6F800804D685A
:10096000ED0062D5374DAE6946F00106AE61AD6966
:1009700024F0030605F001050095334D06EB050C48
:10098000DCF80850A607360F07FA06F825EA08052E
:10099000DFF8B880404503D14FF0000817E044E08D
:1009A000DFF8AC80404502D14FF001080FE0DFF8DE
:1009B000A480404502D14FF0020808E0DFF898809B
:1009C000404502D14FF0030801E04FF0040808FA57
:1009D00006F848EA0508CCF808804D68D9F80060A8
:1009E000ED034D4601D5164300E096432E604D6859
:1009F000DAF80060AD03554601D5164300E0964392
:100A00002E604D68DBF80060ED025D4601D51643AF
:100A100000E096432E604D68DEF80060AD0275463A
:100A200001D5164300E096432E60641C0D682A46EB
:100A3000E5407FF431AFBDE8F88F000000040140CD
:100A400000001110001002400000014000080140A9
:100A5000000C014000100140001401400AB1016186
:100A600070470904FBE700000148806870470000F8
:100A700000000020024881680278114481607047BC
:100A800000000020074810B5016841F01001016026
:100A9000032000F075F8002000F006F800F024F8BC
:100AA000002010BD0020024070B50D4D04464FF4EB
:100AB0007A712878B1FBF0F00A490968B1FBF0F0CF
:100AC00000F023FD48B9102C07D200222146501E09
:100AD00000F036F800206C6070BD012070BD000091
:100AE000000000200C0000200C4808B5816941F08E
:100AF00001018161816901F001010091C16941F049
:100B00008051C161C06900F0805000900448416884
:100B100021F0E06141F08061416008BD00100240B9
:100B200000000140002809DB00F01F020121914074
:100B30004009800000F1E020C0F80011704700007B
:100B4000F0B40E4B1B680C46C3F30223C3F1070538
:100B5000042D00D90425191D072901D2002300E026
:100B6000DB1E012606FA05F1491E214099409E40F0
:100B7000761E16403143F0BC00F0FBBE0CED00E0E9
:100B8000064900F0070208684FF6FF03184040EAE4
:100B90000220034A10430860704700000CED00E09B
:100BA0000000FA0510B529A401461DCC86B08DE8D9
:100BB0001D002AA02A4C006804900020012923D09F
:100BC00002293AD010291DD161682268D20119D5B5
:100BD000C1F38342C9031DF8020009D5616804AA64
:100BE000C1F34041515C1F4AB2FBF1F1484301E0BF
:100BF0001D4948436168490204D440005FF0030185
:100C0000B0FBF1F006B010BD226AC2F30121012948
:100C100003D1920701D5C803F4E7022905D1626A1E
:100C2000920702D549F64040ECE70329EAD1216852
:100C30008903E7D54FF22440E4E700F033F9616817
:100C4000C1F38131491C4900DAE7000002030405C1
:100C5000060708090A0B0C0D0E0F10100102000008
:100C60000010024000127A0000093D002DE9F8430F
:100C700005460078354CC00754D0E0690026C00016
:100C800008D4E06940F08050E061E069012600F09E
:100C9000805000902E480168C90512D40168804632
:100CA00041F480710160FFF7DFFE074605E000BFF9
:100CB000FFF7DAFEC01B642823D8D8F80000C0056F
:100CC000F6D5206A10F4407021D0A98801F4407153
:100CD00081421CD0206A1F49012220F440700A6022
:100CE00000220A602062C00711D0FFF7BDFE074650
:100CF00041F2883808E000BFFFF7B6FEC11B41454E
:100D000002D90320BDE8F883206A8007F4D5206A61
:100D1000696820F44070084320621EB1E06920F049
:100D20008050E0612878800705D56068A96820F4C4
:100D30004040084360602878C00605D56068E968CF
:100D400020F48000084360600020DBE700100240D0
:100D500000700040400442422DE9F0470F46050074
:100D600061D0434E306800F00700B84209D23068C5
:100D700020F0070038433060306800F00700B842C8
:100D800051D128683B4C810712D5400703D56068D4
:100D900040F4E06060602878000703D5606840F4A4
:100DA000605060606068A96820F0F00008436060EF
:100DB0002878C00728D06868012810D02168022848
:100DC00010D0890700292EDA616821F00301014360
:100DD0006160FFF749FE804641F288390DE02168E5
:100DE0008903EFE78901EDE7FFF73EFEA0EB08017D
:100DF000494502D90320BDE8F0876068696800F0C2
:100E00000C00B0EB810FEFD1306800F00700B84262
:100E10000BD9306820F0070038433060306800F0AC
:100E20000700B84201D00120E5E72878400705D542
:100E30006068E96820F4E060084360602878000793
:100E400006D56068296920F4605040EAC1006060FE
:100E500000F038F86168084AC1F30311515CC840DA
:100E60000649086006480068FFF71EFE0020C2E73A
:100E70000020024000100240181A00080C00002058
:100E8000040000200448054900684968044AC1F389
:100E90000221515CC84070470C0000200010024045
:100EA000281A00080448054900684968044AC1F343
:100EB000C221515CC84070470C0000200010024065
:100EC000281A000812A185B00FC98DE80F0014A0E0
:100ED000144A006804905168134801F00C03042B75
:100EE00010D0082B0ED1C1F38343C9031DF80300B2
:100EF0000AD5516804AAC1F34041515C0A4A5043E3
:100F0000B0FBF1F005B0704708494843FAE700002C
:100F100002030405060708090A0B0C0D0E0F10103A
:100F2000010200000010024000127A0000093D009A
:100F30002DE9F84F040070D02078C04DC00749D08B
:100F40006868C0F38100012807D06868C0F3810099
:100F5000022809D16868C00306D52868800339D5FE
:100F600060680028E7D035E06068B0F5803F0BD0BE
:100F700010B1B0F5A02F11D0286820F4803028607F
:100F8000286820F4802002E0286840F4803028603F
:100F9000606890B1FFF768FD06460AE0286840F4F3
:100FA00080202860F0E700BFFFF75EFD801B64280B
:100FB00073D828688003F7D50CE0FFF755FD064687
:100FC00005E000BFFFF750FD801B6428F0D82868BB
:100FD0008003F7D420789A4E80074FF001094FF034
:100FE000000839D5686810F00C0F07D06868C0F3A6
:100FF0008100022809D16868C00306D428688007E8
:1010000014D52069012808D110E02069B0B1C6F8D4
:101010000090FFF729FD074605E00AE1FFF724FDF0
:10102000C01B0228C4D828688007F7D528686169E2
:1010300020F0F80040EAC10028600DE0C6F800800A
:10104000FFF712FD074604E0FFF70EFDC01B022864
:1010500023D828688007F7D4207800072CD5794852
:10106000A169D9B1C0F80090FFF7FEFC074604E083
:10107000FFF7FAFCC01B02280FD8686A8007F7D573
:1010800071484FF4FA510068B0FBF1F0009000BFD6
:101090000098411E0091FAD20EE080E0C0F8008076
:1010A000FFF7E2FC074604E0FFF7DEFCC01B022866
:1010B00075D8686A8007F7D42078400760D5E8695A
:1010C0000027C00008D4E86940F08050E861E86972
:1010D000012700F0805000905C480168C90513D4D6
:1010E0000168834641F480710160FFF7BDFC8246D0
:1010F00006E000BFFFF7B8FCA0EB0A0064284ED85A
:10110000DBF80000C005F5D5E06801280AD008B179
:10111000052813D0286A20F001002862286A20F0F0
:10112000040002E0286A40F001002862E06841F211
:10113000883B98B1FFF798FC82460BE0286A40F0A4
:1011400004002862EEE700BFFFF78EFCA0EB0A0167
:1011500059455AD8286A8007F6D50CE0FFF784FC79
:10116000824605E0FFF780FCA0EB0A0159454CD808
:10117000286A8007F6D41FB1E86920F08050E86142
:10118000E06988B36968C1F38101022944D002286B
:10119000C6F8608004D0FFF767FC044638E034E00E
:1011A000FFF762FC074604E0FFF75EFCC01B022865
:1011B0002BD828688001F7D4206AB0F5803F05D18C
:1011C0006868A16820F4003008436860D4E9080129
:1011D0000843696821F4741108436860C6F8609098
:1011E000FFF742FC044606E025E000BFFFF73CFCA9
:1011F000001B022809D828688001F7D51BE000BF32
:10120000FFF732FC001B022802D90320BDE8F88F4B
:1012100028688001F4D40EE00128F7D06868226ABB
:1012200000F48031914204D1616A00F47010884268
:1012300001D00120EAE70020E8E7000000100240AA
:1012400000004242800442420C0000200070004036
:1012500070B5040009D0606A002540B12561656160
:10126000A56294F8510040B10CE0012070BD6068A7
:10127000B0F5827FF4D0E561F2E784F85050204663
:1012800000F040F8022084F851002068016821F045
:1012900040010160A088218900F4827001F40441BA
:1012A0000843A18901F400610843217C01F0020197
:1012B0000843217D01F001010843218B01F40071F5
:1012C0000843217F01F03801084394F8201001F011
:1012D00080010843218D01F4005108432168086012
:1012E000A069042101EA1040216848602068C169B2
:1012F00021F40061C1616565012084F8510000207E
:1013000070BD000070B586B00025064600950195B9
:101310000295039500681E49884236D11D498869A7
:1013200040F480508861886900F480500490886996
:1013300040F0040088618869174C00F004000490B4
:10134000A0200090022001900320039069462046CF
:10135000FFF794FA4020CDE9000569462046029542
:10136000FFF78CFA0E4C0D48C4E900058020C4E953
:10137000025025616561A5612046E561FFF73EFAEF
:1013800008B1FEF75AFFF464666206B070BD000053
:101390000030014000100240000801401C000240E3
:1013A000980000202DE9F84F044690F850000027DF
:1013B0001D461646894601280DD04FF0010B84F8D2
:1013C00050B0FFF751FB804694F85100BA4601280F
:1013D00004D0022793E00220BDE8F88FB9F1000F96
:1013E00073D0002E71D0032084F85100C4F854A0AB
:1013F000C4F83090A686E686C4F838A0A4F83CA0CD
:10140000A4F83EA0C4F844A0C4F840A0A068B0F579
:10141000004F09D12068016821F040010160206877
:10142000016841F48041016020680168490603D4E5
:10143000016841F040010160E068B0F5006F60684C
:1014400003D030B3012E24D041E008B1012E1CD1CD
:10145000206B21680088C86006E0206881688907E1
:1014600009D5216B0988C160206B801C2063E08E48
:10147000401EE08609E0FFF7F7FAA0EB0800A8425B
:1014800002D3681C01D031E07DB3E08E0028E4D1A6
:1014900020E0206B21680078087306E020688168EE
:1014A000890709D5216B09780173206B401C2063E3
:1014B000E08E401EE0860AE0FFF7D6FAA0EB0800B7
:1014C000A84203D3681C02D010E017E06DB1E08E93
:1014D0000028E3D142462946204600F04CF908B1E5
:1014E00020206065A06818B106E0FFE7032706E04A
:1014F0002068C16880680090606D00B1012784F8A1
:1015000051B084F850A0384666E710B5401EB0F1DF
:10151000807F01D3012010BD4FF0E02460610F21D6
:10152000601700F026FA0020A0610720206100204B
:1015300010BD70B5040004D094F83900002510B136
:1015400006E0012070BD84F83850204600F022F8F3
:10155000242084F839002068C16821F40051C1605A
:10156000204600F0A9F92068016921F49041016149
:101570002068416921F02A0141612068C16841F475
:101580000051C160E563202084F8390084F83A00F6
:10159000002070BD30B585B0002400940194029401
:1015A000039400681449884224D11448816941F4A5
:1015B00080418161816901F480410491816941F038
:1015C0000401816180690E4D00F0040004904FF425
:1015D0000070009002200190032003906946284685
:1015E000FFF74CF92815CDE9000469462846029416
:1015F000FFF744F905B030BD00380140001002404B
:1016000000080140FEE700003EB5002410480094A9
:10161000019402940D4984600160012505730475ED
:1016200005614FF460214460C161FEF78BFE08B193
:10163000FEF703FE0095CDE9015469460448FEF724
:10164000FDFD002801D0FEF7F8FD3EBD002401405D
:1016500010000020094808B5416941F001014161CD
:101660004069002200F00100009011460C20FFF7B5
:1016700067FABDE808400C20FFF754BA001002409A
:1016800070B586B000241848009401940294039425
:10169000816941F020018161816901F0200104919B
:1016A000816941F004018161816901F004010491C3
:1016B000816941F00801816180690C4E00F00800E9
:1016C0004FF400450490002229463046FFF7C6F942
:1016D00001200095CDE901040320039069463046BE
:1016E000FFF7CCF806B070BD00100240000C0140BE
:1016F000104810B50E4901604FF48271416000211D
:101700004FF40062C0E9021292100161C0E90512B3
:101710000822C0E90721416281620A21C162FFF704
:1017200097FD002803D0BDE81040FEF786BD10BD30
:1017300000300140400000200C4810B50A4901600B
:101740004FF4E1314160002181600C22C160C0E9A9
:1017500004128161C161FFF7ECFE002803D0BDE8EF
:101760001040FEF76ABD10BD00380140DC000020CB
:10177000FEE77047704738B50B46009204460022DA
:10178000802100F009F8002804D0606D40F02000AE
:101790006065032038BD00002DE9F8431E469146E0
:1017A00088460446089DFFF75FF9401B351AFFF78E
:1017B0005BF9074625480068C0F3CB30684338E042
:1017C000701C37D0FFF750F9C01BA84203D215B1E7
:1017D000009860B32CE02068416821F0E00141608E
:1017E0006068B0F5827F0BD1A068B0F5004F02D0E1
:1017F000B0F5806F04D12068016821F040010160DC
:10180000A06AB0F5005F09D12068016821F4005199
:1018100001602068016841F400510160012084F8F2
:101820005100002084F850000320BDE8F883002513
:10183000401E00902068816838EA010004D0002131
:101840004945BDD10020F0E70121F9E70C00002057
:101850007047FFF70FB930B593B028216846FEF7FF
:1018600068FC14210AA8FEF764FC002401200F94F0
:1018700010941194010412948DE8130004904FF415
:10188000E010CDE90810022507956846FFF750FBE8
:101890000F20CDE90A056802CDE90C4002210AA813
:1018A0000E94FFF759FAA80311900F950FA8FFF7B0
:1018B000DDF913B030BD704770B5044600680169AA
:1018C000E26821F44051114301612169A068084395
:1018D000616908432168CA6841F20C639A43024374
:1018E000CA6020684169A26921F4407111434161D5
:1018F0001E492068884202D1FFF7D4FA01E0FFF7C1
:10190000C1FA00EBC00101EB0012606864218000A5
:10191000B2FBF0F3B3FBF1F36FF018067343B2FBC5
:10192000F0F5B2FBF0F605EB8305322303EB05156A
:10193000B5FBF1F5B6FBF1F605F0F00505EB061584
:10194000B2FBF0F6B2FBF0F0B0FBF1F06FF0180272
:10195000504306EB800003EB0010B0FBF1F0216870
:1019600000F00F002844886070BD0000003801407E
:10197000FEE70907090E002804DB00F1E02080F8EB
:101980000014704700F00F0000F1E02080F8141DF3
:10199000704702E008C8121F08C1002AFAD1704738
:1019A0007047002001E001C1121F002AFBD17047DF
:1019B00008B5FFF767F8FFF74EFFFFF761FEFFF787
:1019C00049FEFFF7B9FEFFF71FFEFFF791FE4FF448
:1019D000FA742046FEF740FF0D48FEF705FE32215F
:1019E0000B48FEF769FD0A48FEF7A6FC8005F0D516
:1019F0000748FEF7A3FCC0F303218DF801108DF812
:101A000000000223012269460248FFF7CBFCE0E711
:101A10001000002040000020000000000000000036
:101A20000102030406070809000000000102030484
:101A3000501A000800000020100000009219000851
:101A4000601A00081000002010050000A21900080C
:101A50000100000010000000000000000024F4005D
:04000005080000ED02
:00000001FF
