:020000040800F2
:100000002005002001010008AF1B0008871A000826
:10001000AD1B00088D070008391D00080000000016
:10002000000000000000000000000000B31B0008FA
:100030009D07000800000000B11B0008B51B000868
:100040001B0100081B0100081B0100081B01000820
:100050001B0100081B0100081B0100081B01000810
:100060001B0100081B0100081B0100081B01000800
:10007000910700081B0100081B0100081B01000874
:100080001B0100081B0100081B0100081B010008E0
:100090001B0100081B0100081B0100081B010008D0
:1000A0001B0100081B0100081B0100081B010008C0
:1000B0001B0100081B0100081B0100081B010008B0
:1000C0001B0100081B0100081B0100081B010008A0
:1000D0001B0100081B0100081B0100081B01000890
:1000E0001B0100081B0100081B010008DFF80CD0F1
:1000F00000F0BAFA004800476D26000820050020ED
:100100000648804706480047FEE7FEE7FEE7FEE7B1
:10011000FEE7FEE7FEE7FEE7FEE7FEE7191C000844
:10012000ED000008202A04DB203A21FA02F0002129
:10013000704721FA02F3D040C2F1200291400843F7
:1001400019467047D2B201E000F8012B491EFBD2DC
:1001500070470022F6E710B513460A4604461946D2
:10016000FFF7F0FF204610BD2DE9FE4F81EA0304A2
:1001700004F0004421F0004100944FF0000B23F004
:10018000004350EA01045ED052EA03045BD0C3F39B
:100190000A54C1F30A552C44A4F2F3340194A0FB91
:1001A0000254C1F3130141F48011C3F3130343F468
:1001B000801301FB024400FB034E840A970A44EAC1
:1001C000815447EA8357A4FB076802958D0A05FB13
:1001D00007854FEA932C04FB0C542705029D4FEA38
:1001E000065847EA1637B5EB08056EEB070C870E85
:1001F000920E47EA811742EA8312A7FB0201B6EB8F
:100200000B0164EB00042B0D43EA0C335E1844EB46
:100210001C50DA465146E7FB0201C5F313044FEACE
:100220000B3343EA14534FEA0432019C43EA0603BA
:10023000A4F10C040294009CCDE900B400F080F815
:1002400003B0BDE8F08F00200146F9E770B521F05A
:10025000004303430CD0C1F30A550024D5EB040539
:1002600064EB0403D617AD1AB34102DB002001464C
:1002700070BD201841EB025170BD0EB540F2334104
:1002800002910021CDE900110A460B4600F058F812
:1002900003B000BD30B50B460146002020220124EA
:1002A00009E021FA02F59D4205D303FA02F5491B44
:1002B00004FA02F52844151EA2F10102F1DC30BD5A
:1002C0002DE9F05F0546002092469B46884606468B
:1002D000814640241BE02846414647462246FFF718
:1002E00021FF53465A46C01A914110D31146184671
:1002F000224600F0CBF92D1A67EB01084F46224643
:100300000120002100F0C2F917EB00094E41201E28
:10031000A4F10104DFDC484631462A464346BDE8E5
:10032000F09F10B5141E73F1000408DA401C41F16F
:10033000000192185B411A4301D120F0010010BD69
:100340002DE9F04D92469B4611B1B1FA81F202E0DF
:10035000B0FA80F22032904600F098F904460F4639
:1003600040EA0A0041EA0B0153465A46084313D0BB
:10037000114653EA010019D0C8F140025046FFF778
:10038000D1FE05460E4650465946424600F07EF9DB
:10039000084305D0012004E020463946BDE8F08D31
:1003A0000020054346EAE0762C4337430A9863056C
:1003B000E40AA0EB08000022FD0A44EA47540A3090
:1003C00002D500200146E9E7010510196941DDE980
:1003D000084500196941BDE8F04DA2E72DE9FE4F3F
:1003E000804681EA0300C00F0C46009021F00041D6
:1003F00023F00045B8EB0200A94105D24046214652
:1004000090461C460B46024623F00040104347D05E
:10041000270DC7F30A00C3F30A510290401A019056
:1004200040286BDAC3F3130040F4801B0098924617
:1004300020B10023D2EB030A63EB0B0B0198594662
:10044000C0F14002504600F021F906460D465046E4
:100450005946019A00F029F910EB08006141002487
:1004600087EA115284EAE7731A4340D0009A62B3D4
:10047000019A012A4FEA075215DC001B61EB0201C9
:100480004FF0004202EA0752CDE90042001C41F55C
:10049000801132462B46FFF753FF03B0BDE8F08FC3
:1004A00040462146F9E7001B61EB0201001C41F5C3
:1004B000801300185B412018A2F5001747EB0301D9
:1004C00040EAD570B6196D4111E06D084FEA360665
:1004D00045EAC0754FEA0752001B61EB0201001CA0
:1004E00041F5801149084FEA300000195141324668
:1004F0002B4603B0BDE8F04FFFF713BF0098012271
:1005000040000023D0EB020263EBE0730098214629
:100510004FEAE074B8EB000061EB0401E9E783F017
:1005200000435BE781F0004158E72DE9F04D81EA97
:10053000030404F0004B21F0004514464FF0000A7C
:1005400023F0004150EA050220D054EA01021DD0F8
:10055000C5F30A570246C5F31303C1F31300C1F3F1
:100560000A5640F4801543F48013A7EB0608101BCD
:10057000D64608F2FD3873EB050002D308F10108F6
:1005800001E092185B41B8F1000F03DA0020014648
:10059000BDE8F08D00204FF48011064684460EE041
:1005A000171B73EB050705D3121B63EB050306430B
:1005B0004CEA010C49084FEA300092185B4150EABE
:1005C0000107EDD152EA030012D082EA040083EA67
:1005D0000501084305D0101BAB4106D201220023C0
:1005E00006E000224FF0004302E06FF001025310DA
:1005F0001AEB06004CEB085110EB0A0041EB0B0123
:10060000BDE8F04DFFF78DBEC1F30A52C1F31301EF
:1006100040F2FF3341F480119A4202DA0020014691
:10062000704740F233439A42A2F2334202DC524214
:10063000FFF778BD00F02AB830B5041E71F1000450
:1006400004DB4FF00044404264EB0101141E73F1DF
:10065000000405DB1C464FF00043524263EB0403E9
:10066000994208BF904230BD064C074D06E0E06855
:1006700040F0010394E8070098471034AC42F6D3E9
:10068000FFF738FD0027000820270008202A04DB98
:10069000203A00FA02F1002070479140C2F1200395
:1006A00020FA03F3194390407047202A06DBCB174A
:1006B000203A41FA02F043EAE07306E041FA02F31D
:1006C000D040C2F120029140084319467047000013
:1006D00070B5044600688168C943C9071CD18168A8
:1006E00021F00101816000F059FC05460FE000BFD8
:1006F00000F054FC401B022809D9A06A40F0100009
:10070000A062E06A40F00100E062012070BD206854
:100710008068C043C007EBD0002070BDF8B500264C
:100720000446009600688168C943C90728D08168DB
:1007300041F001018160134813490068B0FBF1F0FA
:1007400000E0401E00900028FBD100F027FC054689
:1007500011E000BF00F022FC401B02280BD9A06A68
:1007600040F01000A062E06A40F00100E06284F80E
:1007700024600120F8BD20688068C043C007E9D12B
:100780000020F8BD0C00002040420F00FEE70000F2
:10079000014800F03BBA00009C0000207047704701
:1007A000F8B50024009490F824202546012A12D0A0
:1007B000012280F824204A681F23072A0DD20668E8
:1007C000776B521E02EB820293409F430B6893406B
:1007D0001F43776319E00220F8BD06680D2A0AD28C
:1007E000376BD21F02EB820293409F430B6893400A
:1007F0001F43376309E0F76A0D3A02EB8202934028
:100800009F430B6893401F43F7620A6807230668FB
:100810000A2A0AD3F7680A3A02EB420293409F433E
:100820008B6893401F43F76008E0376902EB420290
:1008300093409F438B6893401F4337610A68102A97
:1008400001D0112A20D1124B02689A4217D1936825
:100850001B0219D4936843F40003936009681029BC
:1008600012D10C490C4A0968B1FBF2F101EB81018C
:10087000490000E0491E00910029FBD104E0816A93
:1008800041F020018162012480F824502046F8BD07
:10089000002401400C00002040420F00806A704795
:1008A0000068C06C704700002DE9F0414FF0000770
:1008B00004003D467ED0A06A002628B9E66284F88E
:1008C0002460204600F07EF82046FFF701FFA16A71
:1008D000C90600D420B1A06A40F01000A06269E00F
:1008E000A16A21F4885141F00201A1626268E169C4
:1008F000237B0A4347EA43010A43A1684FF4807708
:10090000B94209D0012907D05FF0000194F814C062
:10091000BCF1010F02D00AE03946F7E7F3B1A36A50
:1009200043F02003A362E36A43F00103E362236818
:10093000D3F804C02CF4694C4CEA010CC3F804C091
:1009400021688B68DFF870C003EA0C0313438B60E7
:10095000A168B9420BD0012909D00CE0DFF85CC0D6
:10096000A3690CEB43330B4343F40061DFE7218AB7
:100970000D05A5F580152168CB6A23F470032B4380
:10098000CB62216889680E4B1940914208D1E6621A
:10099000A16A21F0020141F00101A162BDE8F081EC
:1009A000A06A20F0020040F01000A062E06A40F06F
:1009B0000100E0620120F1E7FDF7E1FF00E0FFFF49
:1009C000FE0E1FFF00B585B000210091019102913C
:1009D000039100680E49884218D10E48816941F49C
:1009E00000718161816901F400710491816941F0B4
:1009F000040181618069694600F0040004900220CE
:100A0000009003200190044800F0D8F905B000BD23
:100A10000024014000100240000801402DE9F84385
:100A200000260D460446009600F0B8FA804620687D
:100A30008168C90508D5A06A40F02000A06284F84A
:100A400024600120BDE8F8834168C90503D4C06A69
:100A500010F4700F26D0022000F03EFB38490968E0
:100A6000B1FBF0F72068036936490B424FEA610198
:100A70004FEAA1121BD1C3684FEA611C13EA0C0FA5
:100A800015D103690B4221D1C06810421ED1142038
:100A90001FE0681C06D045B300F080FAA0EB080008
:100AA000A84222D8206800688007F2D52AE00369AE
:100AB0000B4202D1C168114206D0026922490A42A2
:100AC00006D1C068084203D1542002E0292000E08A
:100AD000FC204743009813E0681C0ED02DB100F0B5
:100AE0005DFAA0EB0800A84207D9A06A40F0040014
:100AF000A06284F824600320A4E70098401C0090C2
:100B0000B842E9D321686FF012000860A06A40F48F
:100B10000070A06220688068C0F3424007280CD1B2
:100B2000207B50B9A06A20F48070A062A06AC00443
:100B300003D4A06A40F00100A062002082E7000018
:100B40000C000020244992244992240070B50446E8
:100B500090F8240001280DD0012084F824002046BC
:100B6000FFF7DCFD02004FF0000005D084F8240000
:100B7000104670BD022070BDA16A40F20123994366
:100B800041F48071A1621F4D23681F49AB4218D107
:100B90000E6816F4702F14D0A66A46F48016A6626A
:100BA0000E68760505D5A66A26F4005646F48056EA
:100BB000A662A66AF6040AD5E66A26F00606E6628A
:100BC00006E0A66A26F48016A6625E68E9E7E0629F
:100BD00084F824006FF00200186020688368C3F373
:100BE0004243072B05D1A84208D1096811F4702FA0
:100BF00004D0816841F480118160B9E7816841F4D3
:100C0000A001F9E700280140042401402DE9F05F2C
:100C1000C16B0C6801680B68D0F840C0042202FA6E
:100C20000CF2494DDFF824A1494E4A4FDFF828B1B4
:100C3000DFF828E122422CD05A072AD50A6892060A
:100C400003D40A6822F004020A600168A94201D1B3
:100C5000042219E0514501D1402215E0B14202D1F0
:100C60004FF4806210E0B94202D14FF480420BE0B1
:100C7000594502D14FF4802206E0714502D14FF46C
:100C8000800201E04FF080622F4908394A60C16A52
:100C90003BE04FF0020808FA0CF818EA040F4FF096
:100CA00000094FF0010235D05FEA837832D50B6836
:100CB0009B0605D40B6823F00A030B6080F8212003
:100CC0000168A94201D1022219E0514501D1202237
:100CD00015E0B14202D14FF4007210E0B94202D1E6
:100CE0004FF400520BE0594502D14FF4003206E0B8
:100CF000714502D14FF4001201E04FF00072124929
:100D000008394A6080F82090816A00291AD0BDE82D
:100D1000F05F0847082505FA0CF5254212D01B079D
:100D200010D50B6823F00E030B6090F84010C36BD6
:100D300002FA01F15960826380F8212080F8209046
:100D4000016BE2E7BDE8F09F080002401C00024092
:100D50003000024044000240580002406C00024053
:100D600030B528B308C8134914221944B1FBF2F175
:100D70008900C16310498163022141771A6843F6F3
:100D8000F0718A43D0E900142143D0E902452C4395
:100D90002143046921434469214384692143114368
:100DA000196000214163012242770177084630BD76
:100DB000012030BDF8FFFDBF000002402DE9F84FD3
:100DC000DFF8B891002409F1040A0AF1040B234664
:100DD0000F270BF1040EC9E00125A5402A40AA42C5
:100DE0007DD1674ED1F804C0ACEB0608B44532D0D3
:100DF00014DCBCF1030F3AD009DCBCF1000F2AD09F
:100E0000BCF1010F1CD0BCF1020F31D11DE0BCF1CF
:100E1000110F17D0BCF1120F2AD119E0B8F5881FB5
:100E200019D006DCB8F5803F15D0B8F5801F1FD16A
:100E300011E0B8F5001F0ED0B8F5041F18D10AE074
:100E4000CB6815E0CB681B1D12E0CB6808330FE0C0
:100E5000CB680C330CE08B682BB1012B4FF00803EF
:100E600003D0456104E0042302E0056100E00023B3
:100E7000FF2A01D8064601E000F104064FEA840586
:100E800001D9A5F12005D6F8008007FA05FC28EA6B
:100E90000C0803FA05F548EA0508C6F800804D6815
:100EA000ED0062D5374DAE6946F00106AE61AD6921
:100EB00024F0030605F001050095334D06EB050C03
:100EC000DCF80850A607360F07FA06F825EA0805E9
:100ED000DFF8B880404503D14FF0000817E044E048
:100EE000DFF8AC80404502D14FF001080FE0DFF899
:100EF000A480404502D14FF0020808E0DFF8988056
:100F0000404502D14FF0030801E04FF0040808FA11
:100F100006F848EA0508CCF808804D68D9F8006062
:100F2000ED034D4601D5164300E096432E604D6813
:100F3000DAF80060AD03554601D5164300E096434C
:100F40002E604D68DBF80060ED025D4601D516436A
:100F500000E096432E604D68DEF80060AD027546F5
:100F600001D5164300E096432E60641C0D682A46A6
:100F7000E5407FF431AFBDE8F88F00000004014088
:100F80000000111000100240000001400008014064
:100F9000000C01400010014000140140014880682D
:100FA0007047000000000020024881680278114468
:100FB0008160704700000020074810B5016841F0CB
:100FC00010010160032000F075F8002000F006F821
:100FD00000F024F8002010BD0020024070B50D4D37
:100FE00004464FF47A712878B1FBF0F00A49096899
:100FF000B1FBF0F000F070FC48B9102C07D20022D1
:101000002146501E00F036F800206C6070BD0120B3
:1010100070BD0000000000200C0000200C4808B546
:10102000816941F001018161816901F00101009153
:10103000C16941F08051C161C06900F080500090E9
:101040000448416821F0E06141F08061416008BDE1
:101050000010024000000140002809DB00F01F02E0
:10106000012191404009800000F1E020C0F800110A
:1010700070470000F0B40E4B1B680C46C3F302230C
:10108000C3F10705042D00D90425191D072901D234
:10109000002300E0DB1E012606FA05F1491E21406F
:1010A00099409E40761E16403143F0BC00F056BE7B
:1010B0000CED00E0064900F0070208684FF6FF0358
:1010C000184040EA0220034A1043086070470000BD
:1010D0000CED00E00000FA0510B529A401461DCC76
:1010E00086B08DE81D002AA02A4C006804900020DC
:1010F000012923D002293AD010291DD16168226824
:10110000D20119D5C1F38342C9031DF8020009D5E4
:10111000616804AAC1F34041515C1F4AB2FBF1F17E
:10112000484301E01D4948436168490204D4400036
:101130005FF00301B0FBF1F006B010BD226AC2F30C
:101140000121012903D1920701D5C803F4E702293F
:1011500005D1626A920702D549F64040ECE70329BF
:10116000EAD121688903E7D54FF22440E4E700F093
:1011700033F96168C1F38131491C4900DAE70000A5
:1011800002030405060708090A0B0C0D0E0F1010C8
:10119000010200000010024000127A0000093D0028
:1011A0002DE9F84305460078354CC00754D0E06976
:1011B0000026C00008D4E06940F08050E061E0699A
:1011C000012600F0805000902E480168C90512D415
:1011D0000168804641F480710160FFF7DFFE074639
:1011E00005E000BFFFF7DAFEC01B642823D8D8F85B
:1011F0000000C005F6D5206A10F4407021D0A988FF
:1012000001F4407181421CD0206A1F49012220F460
:1012100040700A6000220A602062C00711D0FFF708
:10122000BDFE074641F2883808E000BFFFF7B6FE72
:10123000C11B414502D90320BDE8F883206A80071D
:10124000F4D5206A696820F44070084320621EB11A
:10125000E06920F08050E0612878800705D560685B
:10126000A96820F44040084360602878C00605D58E
:101270006068E96820F48000084360600020DBE7D4
:101280000010024000700040400442422DE9F04747
:101290000F46050061D0434E306800F00700B842A9
:1012A00009D2306820F0070038433060306800F021
:1012B0000700B84251D128683B4C810712D540073E
:1012C00003D5606840F4E06060602878000703D5CB
:1012D000606840F4605060606068A96820F0F000C9
:1012E000084360602878C00728D06868012810D0BB
:1012F0002168022810D0890700292EDA616821F0C0
:10130000030101436160FFF749FE804641F28839DD
:101310000DE021688903EFE78901EDE7FFF73EFE65
:10132000A0EB0801494502D90320BDE8F0876068B9
:10133000696800F00C00B0EB810FEFD1306800F06D
:101340000700B8420BD9306820F0070038433060FE
:10135000306800F00700B84201D00120E5E72878A6
:10136000400705D56068E96820F4E06008436060E4
:101370002878000706D56068296920F4605040EAA3
:10138000C100606000F038F86168084AC1F30311D9
:10139000515CC8400649086006480068FFF71EFE19
:1013A0000020C2E70020024000100240E8260008AA
:1013B0000C0000200400002004480549006849682A
:1013C000044AC1F30221515CC84070470C00002060
:1013D00000100240F82600080448054900684968E2
:1013E000044AC1F3C221515CC84070470C00002080
:1013F00000100240F826000812A185B00FC98DE840
:101400000F0014A0144A006804905168134801F0BA
:101410000C03042B10D0082B0ED1C1F38343C90356
:101420001DF803000AD5516804AAC1F34041515C7C
:101430000A4A5043B0FBF1F005B0704708494843F1
:10144000FAE7000002030405060708090A0B0C0D61
:101450000E0F1010010200000010024000127A006E
:1014600000093D002DE9F84F040070D02078C04DF0
:10147000C00749D06868C0F38100012807D06868B8
:10148000C0F38100022809D16868C00306D5286826
:10149000800339D560680028E7D035E06068B0F592
:1014A000803F0BD010B1B0F5A02F11D0286820F4E8
:1014B00080302860286820F4802002E0286840F40A
:1014C00080302860606890B1FFF768FD06460AE04A
:1014D000286840F480202860F0E700BFFFF75EFD39
:1014E000801B642873D828688003F7D50CE0FFF7C9
:1014F00055FD064605E000BFFFF750FD801B642840
:10150000F0D828688003F7D420789A4E80074FF0EF
:1015100001094FF0000839D5686810F00C0F07D0AA
:101520006868C0F38100022809D16868C00306D446
:101530002868800714D52069012808D110E02069A7
:10154000B0B1C6F80090FFF729FD074605E00AE1B3
:10155000FFF724FDC01B0228C4D828688007F7D5F0
:101560002868616920F0F80040EAC10028600DE0B9
:10157000C6F80080FFF712FD074604E0FFF70EFDF6
:10158000C01B022823D828688007F7D420780007DA
:101590002CD57948A169D9B1C0F80090FFF7FEFCBD
:1015A000074604E0FFF7FAFCC01B02280FD8686A60
:1015B0008007F7D571484FF4FA510068B0FBF1F09D
:1015C000009000BF0098411E0091FAD20EE080E02A
:1015D000C0F80080FFF7E2FC074604E0FFF7DEFCFE
:1015E000C01B022875D8686A8007F7D420784007A6
:1015F00060D5E8690027C00008D4E86940F0805051
:10160000E861E869012700F0805000905C480168BB
:10161000C90513D40168834641F480710160FFF766
:10162000BDFC824606E000BFFFF7B8FCA0EB0A0055
:1016300064284ED8DBF80000C005F5D5E068012825
:101640000AD008B1052813D0286A20F001002862CA
:10165000286A20F0040002E0286A40F001002862B5
:10166000E06841F2883B98B1FFF798FC82460BE0B6
:10167000286A40F004002862EEE700BFFFF78EFC06
:10168000A0EB0A0159455AD8286A8007F6D50CE024
:10169000FFF784FC824605E0FFF780FCA0EB0A011F
:1016A00059454CD8286A8007F6D41FB1E86920F064
:1016B0008050E861E06988B36968C1F3810102295B
:1016C00044D00228C6F8608004D0FFF767FC0446C7
:1016D00038E034E0FFF762FC074604E0FFF75EFC09
:1016E000C01B02282BD828688001F7D4206AB0F5E7
:1016F000803F05D16868A16820F400300843686025
:10170000D4E908010843696821F47411084368604A
:10171000C6F86090FFF742FC044606E025E000BFF3
:10172000FFF73CFC001B022809D828688001F7D588
:101730001BE000BFFFF732FC001B022802D9032088
:10174000BDE8F88F28688001F4D40EE00128F7D0B6
:101750006868226A00F48031914204D1616A00F421
:101760007010884201D00120EAE70020E8E700007D
:101770000010024000004242800442420C0000205F
:101780000070004070B5040009D0606A002540B1C7
:1017900025616561A56294F8510040B10CE001201B
:1017A00070BD6068B0F5827FF4D0E561F2E784F83F
:1017B0005050204600F040F8022084F85100206884
:1017C000016821F040010160A088218900F4827045
:1017D00001F404410843A18901F400610843217C1C
:1017E00001F002010843217D01F001010843218B32
:1017F00001F400710843217F01F03801084394F897
:10180000201001F080010843218D01F400510843AC
:1018100021680860A069042101EA1040216848603D
:101820002068C16921F40061C1616565012084F807
:101830005100002070BD000070B586B0002506463E
:10184000009501950295039500681E49884236D19E
:101850001D49886940F480508861886900F480508F
:101860000490886940F0040088618869174C00F092
:1018700004000490A0200090022001900320039017
:1018800069462046FFF79AFA4020CDE900056946EF
:1018900020460295FFF792FA0E4C0D48C4E9000568
:1018A0008020C4E9025025616561A5612046E5619B
:1018B000FFF756FA08B1FEF772FFF464666206B0ED
:1018C00070BD0000003001400010024000080140DF
:1018D0001C0002409C00002010B5401EB0F1807F2B
:1018E00001D3012010BD4FF0E02460610F2160178B
:1018F00000F034FA0020A06107202061002010BD14
:1019000070B5040004D094F83900002510B106E049
:10191000012070BD84F83850204600F023F82420C0
:1019200084F839002068C16821F40051C160204664
:1019300000F074F92068016921F490410161206888
:10194000416921F02A0141612068C16841F40051D8
:10195000C160E563202084F8390084F83A00002053
:1019600070BD000030B585B000240094019402944D
:10197000039400681449884224D11448816941F4D1
:1019800080418161816901F480410491816941F064
:101990000401816180690E4D00F0040004904FF451
:1019A00000700090022001900320039069462846B1
:1019B000FFF704FA2815CDE9000469462846029489
:1019C000FFF7FCF905B030BD0038014000100240BF
:1019D000000801402DE9F843044690F839001F46FD
:1019E00016460D4620284CD1C5B1BEB194F838003A
:1019F000012846D0012084F838004FF00008C4F8D0
:101A00003C80212084F83900FFF7C8FAA68481467B
:101A1000E684A068B0F5805F03D004E00120BDE853
:101A2000F883206928B12E465FF0000584F83880DD
:101A30000EE00026FAE78021204600F04BF9A0B91D
:101A4000AEB116F8010B21684860E08C401EE084BE
:101A5000E08C4B464FF0000200970028EBD14FF08E
:101A60004001204600F036F930B10320D7E735F8C1
:101A7000020BC0F30800E6E7202084F839000020BC
:101A8000CDE70220CBE7FEE73EB5002410480094E6
:101A9000019402940D498460016001250573047569
:101AA00005614FF460214460C161FEF7FDFE08B19D
:101AB000FEF775FE0095CDE9015469460448FEF72E
:101AC0006FFE002801D0FEF76AFE3EBD00240140F3
:101AD00014000020094808B5416941F00101416145
:101AE0004069002200F00100009011460C20FFF731
:101AF000C1FABDE808400C20FFF7AEBA0010024062
:101B0000094808B5816941F020018161816901F0CE
:101B100020010091816941F004018161806900F038
:101B20000400009008BD000000100240104810B5ED
:101B30000E4901604FF48271416000218160C160F3
:101B40004FF400720161C0E905120822C0E90721C3
:101B5000416281620A21C162FFF714FE002803D0AE
:101B6000BDE81040FEF71BBE10BD00000030014074
:101B7000440000200C4810B50A4901604FF4E131DF
:101B80004160002181600C22C160C0E904128161C2
:101B9000C161FFF7B5FE002803D0BDE81040FEF795
:101BA000FEBD10BD00380140E0000020FEE7704798
:101BB00070477047FFF7F8B930B593B028216846F1
:101BC000FEF7C7FA14210AA8FEF7C3FA0024012081
:101BD0000F9410941194010412948DE81300049052
:101BE0004FF4E010CDE90810022507956846FFF78D
:101BF00039FC0F20CDE90A056802CDE90C4002212D
:101C00000AA80E94FFF742FBA80311900F950FA8A6
:101C1000FFF7C6FA13B030BD7047000070B5044638
:101C200000680169E26821F44051114301612169B2
:101C3000A0680843616908432168CA6841F20C63DF
:101C40009A430243CA6020684169A26921F4407145
:101C5000114341611E492068884202D1FFF7BCFB55
:101C600001E0FFF7A9FB00EBC00101EB0012606887
:101C700064218000B2FBF0F3B3FBF1F36FF01806C0
:101C80007343B2FBF0F5B2FBF0F605EB83053223AC
:101C900003EB0515B5FBF1F5B6FBF1F605F0F00524
:101CA00005EB0615B2FBF0F6B2FBF0F0B0FBF1F07D
:101CB0006FF01802504306EB800003EB0010B0FBFE
:101CC000F1F0216800F00F002844886070BD00002A
:101CD000003801402DE9F041984617460E4604466B
:101CE000069D1DE0681C1BD02DB1FFF757F9A0EB36
:101CF0000800A84214D92068C16821F4D071C160DD
:101D00002068416921F001014161202084F83900F7
:101D100084F83A00002084F838000320BDE8F08100
:101D20002068006836EA000004D00020B842D9D00C
:101D30000020F3E70120F9E7FEE700000FB4054BB0
:101D400010B503A9044A029800F0EAF810BC5DF847
:101D500014FB000051260008100000200907090E9E
:101D6000002804DB00F1E02080F80014704700F048
:101D70000F0000F1E02080F8141D704702E008C851
:101D8000121F08C1002AFAD170477047002001E0F5
:101D900001C1121F002AFBD1704700002DE9FF5F2F
:101DA00082B00021DDE90430020DDDF840B00343CC
:101DB00018D044F61050A2F2FF3242431514119885
:101DC00001281FD0A5EB0B00401C5FEA000A4FF072
:101DD00000064E4FDFF83891B046504615D5CAF18F
:101DE000000413E0119801244AA3012801D16FEAED
:101DF0000B010298119AC0E90031C0E9024206B015
:101E0000BDE8F09FCBF10000DFE704460021404A27
:101E1000491842EB0450CDE9001012E0E00707D06A
:101E200032463B4640464946FEF79EF98046894683
:101E300032463B4610461946FEF796F906460F46CF
:101E40006410002CEAD1DDE90401DDE90023BAF1D8
:101E5000000F06DAFEF788F942464B46FEF784F992
:101E600005E0FEF762FB42464B46FEF75EFB04468A
:101E70000E460022284BFEF7DFFB03D84FF0FF3061
:101E8000014607E00022254B20463146FEF7A6FA20
:101E9000FEF7BAFB102409E0002C0ADB0A2200231B
:101EA000FEF70EFA039B30321A55641E50EA010207
:101EB000F2D1641C039AC4F111031444119A012A4B
:101EC00003D0012208430DD10AE0084304D00020CA
:101ED0004FF0110B119072E7A3EB0B056D1E0DE097
:101EE0005B4504DD4FF0000205F1010504E003DA73
:101EF0004FF00002A5F10105002AECD002981199DB
:101F0000C0E90231C0E9004579E700000000144053
:101F10000000F03F300000000000F0430000E03F10
:101F20002DE9FF4F95B09B468946064600250FE2F6
:101F3000252877D100242746F84A0121059400E09E
:101F4000044316F8013F203B01FA03F01042F7D199
:101F500030782A2811D06FF02F033078A0F13002AA
:101F6000092A16D8059A44F0020402EB820203EB18
:101F700042021044761C0590EFE759F8042B0592B5
:101F8000002A03DA504244F40054059044F002045D
:101F9000761C30782E2816D116F8010F44F0040470
:101FA0002A280DD06FF02F023078A0F13003092BD2
:101FB00009D807EB870302EB4303C718761CF3E746
:101FC00059F8047B761C30786C280FD006DC4C283E
:101FD00017D068280DD06A2814D104E0742810D0D6
:101FE0007A280FD10DE044F400140AE044F4801480
:101FF00001E044F440147278824202D104F5801466
:10200000761C761C307866280BD013DC582877D0E5
:1020100009DC002875D04528F6D04628F4D047289A
:102020001AD19DE118E0632835D0642879D065285D
:1020300012D195E1702873D008DC6728F1D06928A7
:102040006FD06E280DD06F2806D1B5E073282CD044
:10205000752875D0782874D05A46179990476D1C0A
:1020600075E1C4F30250022809D003280DD0D9F835
:10207000001004280DD00D6009F1040967E1D9F8BA
:102080000010EA17C1E90052F6E7D9F800100D80F8
:10209000F2E70D70F0E719F8041B8DF8001000202E
:1020A0008DF80100EA46012003E059F804AB4FF037
:1020B000FF3061074FF0000102D40DE008F101018B
:1020C0008846B9420FDA8045F8DB1AF80810002973
:1020D000F4D108E008F1010188468142FADB1AF8E0
:1020E00008100029F6D105985B46A0EB08072146A9
:1020F0003846179A00F094FA284400EB080507E0E8
:102100004DE029E10DE01AF8010B5A461799904766
:10211000B8F10108F7D25B4621463846179A13E119
:1021200042E00A220092C4F302524FF0000A022A4F
:1021300008D059F804CB032A4FEAEC710AD00DE01D
:1021400029E02AE009F1070121F00702F2E802C1C3
:10215000914609E00FFA8CFC4FEAEC71042A03D196
:102160004FFA8CFC4FEAEC71002907DA0A4600218D
:10217000DCF1000C61EB02012D2202E0220504D506
:102180002B228DF80420012203E0E20701D0202257
:10219000F7E7904659E00A2102E010220DE01021F5
:1021A0004FF0000A00910BE010224FF0000A44F0BB
:1021B00004040827009203E008224FF0000A00926E
:1021C000C4F30252022A05D059F804CB0021032A95
:1021D00008D009E009F1070121F00702F2E802C185
:1021E000914605E01FFA8CFC042A01D10CF0FF0C8B
:1021F0004FF00008220728D5702806D0009B83F0F6
:10220000100353EA0A0305D00EE040228DF80420A3
:10221000012208E05CEA010206D030228DF8042099
:102220008DF8050002229046009B83F0080353EAD4
:102230000A030AD15CEA010201D1620705D5302206
:102240008DF804204FF001087F1E582804D034A0D8
:1022500003900EA802900DE036A0F9E753466046C1
:10226000009AFEF72DF884460398825C0298401E7F
:10227000029002705CEA0100F0D1029806A9081AE7
:1022800000F1200A600702D524F4803400E0012721
:10229000574502DDA7EB0A0000E0002000EB0A0131
:1022A000009005984144401A0590E00306D45B462F
:1022B0002146179A059800F0B3F90544002706E077
:1022C00001A85A46C05D179990476D1C7F1C474571
:1022D000F6DBE0030CD55B462146179A059800F023
:1022E0009FF9054404E030205A46179990476D1C29
:1022F0000099481E00900029F5DC08E00298029938
:102300005A460078491C0291179990476D1CBAF102
:102310000001AAF1010AF1DC65E1000009280100D1
:10232000303132333435363738396162636465664B
:10233000000000003031323334353637383941420D
:10234000434445460000000000F058F90544761C5F
:10235000307800287FF4ECAD19B02846BDE8F08F46
:10236000620700D4062709F1070222F0070CFCE8F7
:102370000223E14603F000485FEA080C02D00FF2A6
:10238000702C0DE05FEA045C02D50FF2682C07E0C8
:102390005FEAC47C02D00FF2602C01E0AFF2700C57
:1023A0004FF0FF3823F00043CDF850C065280CD023
:1023B00006DC452809D046281DD047283DD13DE000
:1023C000662818D067287ED138E00021112F01DB64
:1023D000112000E0781CCDE9000106A90EA8FFF746
:1023E000DDFCDDE90F010E9A03910021009207F157
:1023F000010A04914DE04FF000400097CDE9011033
:1024000006A90EA8FFF7CAFCDDE90F0203920E9B96
:1024100011990022DDF80CA00093049211B9791CE7
:1024200000EB010AB7EB0A0004D4C0F1FF3007F15A
:10243000010A0490AAEB0700019044E0012F00DAA2
:1024400001270021112F01DD112000E03846CDE9E0
:10245000000106A90EA8FFF7A1FCDDE90F010E9A05
:102460000391002104910092BA4621070CD40399EC
:10247000514500DA8A46BAF1010F05DD009AAAF14A
:102480000101515C302908D0B84202DA10F1040F82
:1024900006DA0121CDE9011015E0AAF10101E9E711
:1024A000002805DC049901440491AAEB000102E034
:1024B000411C514500DD8A460499401A401C019098
:1024C0004FF000400290200704D40198504501DBF2
:1024D000CDF8048000208DF84F0002980DF14F07D1
:1024E000B0F1004F25D02B200E9002984FF002083B
:1024F00000280CDA404202902D200E9007E00A21BD
:102500000298FDF7C7FE3031029007F8011DB8F1BF
:102510000001A8F10108F2DC02980028EFD1791E31
:102520000E980870307800F0200040F0450007F861
:10253000020D12A8C01B00F107081498007800B122
:10254000012000EB0A01019801EBE071059841447C
:10255000401A401E0590E00306D45B462146179AB8
:10256000059800F05DF805441498007818B15A46B3
:10257000179990476D1CE00324D55B462146179AB6
:10258000059800F04DF805441CE00498002807DB8E
:10259000DDE90301884203DD0098405C179901E002
:1025A000179930205A469047049805F10105401CC0
:1025B00004900198401E019004D12E205A4617998C
:1025C00090476D1CBAF10001AAF1010ADDDC05E0BB
:1025D00017F8010B5A46179990476D1CB8F1000186
:1025E000A8F10108F4DC5B462146179A0598ABE692
:1025F0002D0000002B000000200000002DE9F0411C
:10260000044600251E461746880404D405E03946D2
:102610002020B0476D1C641EF9D52846BDE8F08126
:102620002DE9F041044600251E469046C80301D519
:10263000302700E02027880404D505E041463846CD
:10264000B0476D1C641EF9D52846BDE8F081000036
:1026500038B504468DF8000002230122694602487D
:10266000FFF7B8F9204638BDE0000020FEF7A4FCD3
:10267000FFF7A2FAFFF744FAFFF72CFAFFF77AFA0E
:10268000FFF702FAFFF752FA0F48FEF75FFA32211E
:102690000D48FEF7C3F90C48FEF700F9800512D586
:1026A0000948FEF7FDF880B2FDF7E7FD0022074B71
:1026B000FDF75AFD6FF00B02FDF7C8FD02460B4611
:1026C00003A0FFF73BFBFEE71400002000C8A94071
:1026D0005B096D61696E5D696E666F3A763D252EA8
:1026E00031666D760D0A0000000000000000000059
:1026F00001020304060708090000000001020304A8
:102700002027000800000020140000007C1D0008A5
:1027100034270008140000200C0500008C1D000860
:102720000100000010000000000000000024F40080
:0427300000000000A5
:04000005080000ED02
:00000001FF
