:020000040800F2
:1000000020050020010100089B1800082B1700089C
:1000100099180008550200088D1B00080000000018
:10002000000000000000000000000000091A0008A5
:100030008F020008000000009D1800080B1A00083D
:100040001B0100081B0100081B0100081B01000820
:100050001B0100081B0100081B0100081B01000810
:100060001B0100081B0100081B0100081B01000800
:100070001B010008590200081B0100081B010008B1
:100080001B0100081B0100081B0100081B010008E0
:100090001B0100081B0100081B0100081B010008D0
:1000A0001B0100081B0100081B0100081B010008C0
:1000B0001B0100081B0100081B0100081B010008B0
:1000C0001B0100081B0100081B0100081B010008A0
:1000D0001B0100081B0100081B0100081B01000890
:1000E0001B0100081B0100081B010008DFF80CD0F1
:1000F00000F040F800480047611D0008200500207E
:100100000648804706480047FEE7FEE7FEE7FEE7B1
:10011000FEE7FEE7FEE7FEE7FEE7FEE76F1A0008F0
:10012000ED000008D2B201E000F8012B491EFBD21D
:1001300070470022F6E710B513460A4604461946F2
:10014000FFF7F0FF204610BD30B50B4601460020FA
:100150002022012409E021FA02F59D4205D303FA89
:1001600002F5491B04FA02F52844151EA2F101020A
:10017000F1DC30BD064C074D06E0E06840F00103BD
:1001800094E8070098471034AC42F6D3FFF7B2FF6B
:100190001C1E00083C1E000870B5044600688168FB
:1001A000C943C9071CD1816821F00101816000F0B9
:1001B000CFFC05460FE000BF00F0CAFC401B022840
:1001C00009D9A06A40F01000A062E06A40F0010086
:1001D000E062012070BD20688068C043C007EBD09A
:1001E000002070BDF8B500260446009600688168BE
:1001F000C943C90728D0816841F0010181601348D3
:1002000013490068B0FBF1F000E0401E00900028A8
:10021000FBD100F09DFC054611E000BF00F098FC0A
:10022000401B02280BD9A06A40F01000A062E06ACF
:1002300040F00100E06284F824600120F8BD2068ED
:100240008068C043C007E9D10020F8BD0C00002041
:1002500040420F00FEE70000014800F061BA0000D4
:100260009C00002030B590F840500124AC40C56B94
:100270006C60046863604368102B036803D0996066
:100280000068C26030BD9A600068C16030BD7047D0
:1002900070470000F8B50024009490F8242025460B
:1002A000012A12D0012280F824204A681F23072A3D
:1002B0000DD20668776B521E02EB820293409F4379
:1002C0000B6893401F43776319E00220F8BD06686E
:1002D0000D2A0AD2376BD21F02EB820293409F4352
:1002E0000B6893401F43376309E0F76A0D3A02EB4E
:1002F000820293409F430B6893401F43F7620A6852
:10030000072306680A2A0AD3F7680A3A02EB420270
:1003100093409F438B6893401F43F76008E0376921
:1003200002EB420293409F438B6893401F43376127
:100330000A68102A01D0112A20D1124B02689A4271
:1003400017D193681B0219D4936843F40003936098
:100350000968102912D10C490C4A0968B1FBF2F165
:1003600001EB8101490000E0491E00910029FBD109
:1003700004E0816A41F020018162012480F8245068
:100380002046F8BD002401400C00002040420F0030
:10039000806A70470068C06C704700002DE9F0412A
:1003A0004FF0000704003D467ED0A06A002628B921
:1003B000E66284F82460204600F07EF82046FFF7CD
:1003C000EBFEA16AC90600D420B1A06A40F010007B
:1003D000A06269E0A16A21F4885141F00201A162A2
:1003E0006268E169237B0A4347EA43010A43A16843
:1003F0004FF48077B94209D0012907D05FF000019E
:1004000094F814C0BCF1010F02D00AE03946F7E7B6
:10041000F3B1A36A43F02003A362E36A43F001034C
:10042000E3622368D3F804C02CF4694C4CEA010C55
:10043000C3F804C021688B68DFF870C003EA0C03BE
:1004400013438B60A168B9420BD0012909D00CE09D
:10045000DFF85CC0A3690CEB43330B4343F400614A
:10046000DFE7218A0D05A5F580152168CB6A23F405
:1004700070032B43CB62216889680E4B194091426F
:1004800008D1E662A16A21F0020141F00101A162F6
:10049000BDE8F081A06A20F0020040F01000A062E8
:1004A000E06A40F00100E0620120F1E7FDF7E1FFC2
:1004B00000E0FFFFFE0E1FFF10B586B00021009187
:1004C00001910291039100681549884226D115488F
:1004D000816941F400718161816901F400710491C5
:1004E000816941F004018161816901F00401049195
:1004F000816941F0080181618069032400F00800EE
:100500000490FF20CDE900046946074800F02AFA6C
:10051000009469460548019400F024FA06B010BD25
:10052000002401400010024000080140000C01407E
:100530002DE9F84300260D460446009600F008FB1E
:10054000804620688168C90508D5A06A40F020006F
:10055000A06284F824600120BDE8F8834168C905E1
:1005600003D4C06A10F4700F26D0022000F08EFB76
:1005700038490968B1FBF0F72068036936490B4236
:100580004FEA61014FEAA1121BD1C3684FEA611C17
:1005900013EA0C0F15D103690B4221D1C068104238
:1005A0001ED114201FE0681C06D045B300F0D0FA1D
:1005B000A0EB0800A84222D8206800688007F2D586
:1005C0002AE003690B4202D1C168114206D00269D8
:1005D00022490A4206D1C068084203D1542002E0F1
:1005E000292000E0FC204743009813E0681C0ED04F
:1005F0002DB100F0ADFAA0EB0800A84207D9A06A1F
:1006000040F00400A06284F824600320A4E700986E
:10061000401C0090B842E9D321686FF012000860D6
:10062000A06A40F40070A06220688068C0F3424075
:1006300007280CD1207B50B9A06A20F48070A062FA
:10064000A06AC00403D4A06A40F00100A0620020A8
:1006500082E700000C0000202449922449922400E3
:1006600070B5044690F8240001280DD0012084F8CC
:1006700024002046FFF7B6FD02004FF0000005D031
:1006800084F82400104670BD022070BDA16A40F2BB
:100690000123994341F48071A1621F4D23681F49D2
:1006A000AB4218D10E6816F4702F14D0A66A46F427
:1006B0008016A6620E68760505D5A66A26F4005651
:1006C00046F48056A662A66AF6040AD5E66A26F0C3
:1006D0000606E66206E0A66A26F48016A6625E6852
:1006E000E9E7E06284F824006FF0020018602068F7
:1006F0008368C3F34243072B05D1A84208D1096898
:1007000011F4702F04D0816841F480118160B9E741
:10071000816841F4A001F9E7002801400424014068
:100720002DE9F05FC16B0C6801680B68D0F840C020
:10073000042202FA0CF2494DDFF824A1494E4A4F37
:10074000DFF828B1DFF828E122422CD05A072AD559
:100750000A68920603D40A6822F004020A6001685B
:10076000A94201D1042219E0514501D1402215E0EE
:10077000B14202D14FF4806210E0B94202D14FF48D
:1007800080420BE0594502D14FF4802206E07145CA
:1007900002D14FF4800201E04FF080622F49083906
:1007A0004A60C16A3BE04FF0020808FA0CF818EA08
:1007B000040F4FF000094FF0010235D05FEA837853
:1007C00032D50B689B0605D40B6823F00A030B6037
:1007D00080F821200168A94201D1022219E0514587
:1007E00001D1202215E0B14202D14FF4007210E095
:1007F000B94202D14FF400520BE0594502D14FF4F7
:10080000003206E0714502D14FF4001201E04FF0D2
:100810000072124908394A6080F82090816A0029E4
:100820001AD0BDE8F05F0847082505FA0CF5254207
:1008300012D01B0710D50B6823F00E030B6090F845
:100840004010C36B02FA01F15960826380F82120E5
:1008500080F82090016BE2E7BDE8F09F08000240BD
:100860001C00024030000240440002405800024098
:100870006C00024030B528B308C81349142219444B
:10088000B1FBF2F18900C163104981630221417714
:100890001A6843F6F0718A43D0E900142143D0E985
:1008A00002452C432143046921434469214384695F
:1008B00021431143196000214163012242770177EE
:1008C000084630BD012030BDF8FFFDBF00000240EA
:1008D00070B5044690F82000002501280CD00120B6
:1008E00084F8200094F821600020012E06D084F8BE
:1008F00020000225284670BD022070BD022684F823
:100900002160A0632068066826F001060660204684
:10091000FFF7A8FCE06A00282068016802D041F0D7
:100920000E0106E021F0040101602068016841F039
:100930000A0101602068016841F001010160D9E706
:1009400070B5044600F004F90546601C02D0044866
:100950000078044400F0FCF8401BA042FAD370BDBC
:10096000000000202DE9F84FDFF8B891002409F1CC
:10097000040A0AF1040B23460F270BF1040EC9E009
:100980000125A5402A40AA427DD1674ED1F804C076
:10099000ACEB0608B44532D014DCBCF1030F3AD0FE
:1009A00009DCBCF1000F2AD0BCF1010F1CD0BCF156
:1009B000020F31D11DE0BCF1110F17D0BCF1120FA5
:1009C0002AD119E0B8F5881F19D006DCB8F5803FA8
:1009D00015D0B8F5801F1FD111E0B8F5001F0ED05B
:1009E000B8F5041F18D10AE0CB6815E0CB681B1DD1
:1009F00012E0CB6808330FE0CB680C330CE08B6857
:100A00002BB1012B4FF0080303D0456104E0042310
:100A100002E0056100E00023FF2A01D8064601E05C
:100A200000F104064FEA840501D9A5F12005D6F8A6
:100A3000008007FA05FC28EA0C0803FA05F548EAE5
:100A40000508C6F800804D68ED0062D5374DAE69E7
:100A500046F00106AE61AD6924F0030605F001051C
:100A60000095334D06EB050CDCF80850A607360F51
:100A700007FA06F825EA0805DFF8B880404503D1F3
:100A80004FF0000817E044E0DFF8AC80404502D1A9
:100A90004FF001080FE0DFF8A480404502D14FF08D
:100AA000020808E0DFF89880404502D14FF00308C3
:100AB00001E04FF0040808FA06F848EA0508CCF807
:100AC00008804D68D9F80060ED034D4601D5164306
:100AD00000E096432E604D68DAF80060AD0355469D
:100AE00001D5164300E096432E604D68DBF80060A8
:100AF000ED025D4601D5164300E096432E604D6839
:100B0000DEF80060AD02754601D5164300E096435D
:100B10002E60641C0D682A46E5407FF431AFBDE8C5
:100B2000F88F000000040140000011100010024086
:100B30000000014000080140000C0140001001408D
:100B4000001401400AB1016170470904FBE700008D
:100B5000014880687047000000000020024881685A
:100B6000027811448160704700000020074810B5EA
:100B7000016841F010010160032000F075F80020C9
:100B800000F006F800F024F8002010BD002002401C
:100B900070B50D4D04464FF47A712878B1FBF0F032
:100BA0000A490968B1FBF0F000F0E8FC48B9102CE4
:100BB00007D200222146501E00F036F800206C605B
:100BC00070BD012070BD0000000000200C0000205E
:100BD0000C4808B5816941F001018161816901F02A
:100BE00001010091C16941F08051C161C06900F00B
:100BF000805000900448416821F0E06141F080613C
:100C0000416008BD0010024000000140002809DBDF
:100C100000F01F02012191404009800000F1E02016
:100C2000C0F8001170470000F0B40E4B1B680C4672
:100C3000C3F30223C3F10705042D00D90425191DB0
:100C4000072901D2002300E0DB1E012606FA05F188
:100C5000491E214099409E40761E16403143F0BC0B
:100C600000F0A6BF0CED00E0064900F0070208689E
:100C70004FF6FF03184040EA0220034A1043086081
:100C8000704700000CED00E00000FA0510B529A443
:100C900001461DCC86B08DE81D002AA02A4C0068B4
:100CA00004900020012923D002293AD010291DD117
:100CB00061682268D20119D5C1F38342C9031DF8C6
:100CC000020009D5616804AAC1F34041515C1F4A82
:100CD000B2FBF1F1484301E01D4948436168490214
:100CE00004D440005FF00301B0FBF1F006B010BD8A
:100CF000226AC2F30121012903D1920701D5C80359
:100D0000F4E7022905D1626A920702D549F640400C
:100D1000ECE70329EAD121688903E7D54FF22440A3
:100D2000E4E700F033F96168C1F38131491C4900FF
:100D3000DAE7000002030405060708090A0B0C0D98
:100D40000E0F1010010200000010024000127A0085
:100D500000093D002DE9F84305460078354CC007F1
:100D600054D0E0690026C00008D4E06940F080500B
:100D7000E061E069012600F0805000902E48016893
:100D8000C90512D40168804641F480710160FFF703
:100D9000DFFE074605E000BFFFF7DAFEC01B642850
:100DA00023D8D8F80000C005F6D5206A10F44070AA
:100DB00021D0A98801F4407181421CD0206A1F49CA
:100DC000012220F440700A6000220A602062C007FD
:100DD00011D0FFF7BDFE074641F2883808E000BF9A
:100DE000FFF7B6FEC11B414502D90320BDE8F883D9
:100DF000206A8007F4D5206A696820F440700843AF
:100E000020621EB1E06920F08050E0612878800700
:100E100005D56068A96820F44040084360602878E0
:100E2000C00605D56068E96820F48000084360606A
:100E30000020DBE700100240007000404004424206
:100E40002DE9F0470F46050061D0434E306800F0B1
:100E50000700B84209D2306820F0070038433060FC
:100E6000306800F00700B84251D128683B4C810738
:100E700012D5400703D5606840F4E06060602878D0
:100E8000000703D5606840F4605060606068A9683E
:100E900020F0F000084360602878C00728D0686818
:100EA000012810D02168022810D0890700292EDAE5
:100EB000616821F0030101436160FFF749FE80464C
:100EC00041F288390DE021688903EFE78901EDE7F8
:100ED000FFF73EFEA0EB0801494502D90320BDE81B
:100EE000F0876068696800F00C00B0EB810FEFD10B
:100EF000306800F00700B8420BD9306820F00700D6
:100F000038433060306800F00700B84201D001205B
:100F1000E5E72878400705D56068E96820F4E060D7
:100F2000084360602878000706D56068296920F4C6
:100F3000605040EAC100606000F038F86168084A1B
:100F4000C1F30311515CC8400649086006480068B7
:100F5000FFF71EFE0020C2E7002002400010024002
:100F6000041E00080C00002004000020044805496D
:100F700000684968044AC1F30221515CC8407047C7
:100F80000C00002000100240141E0008044805490F
:100F900000684968044AC1F3C221515CC8407047E7
:100FA0000C00002000100240141E000812A185B0A1
:100FB0000FC98DE80F0014A0144A0068049051680E
:100FC000134801F00C03042B10D0082B0ED1C1F3F1
:100FD0008343C9031DF803000AD5516804AAC1F36D
:100FE0004041515C0A4A5043B0FBF1F005B07047F4
:100FF00008494843FAE70000020304050607080908
:101000000A0B0C0D0E0F1010010200000010024020
:1010100000127A0000093D002DE9F84F040070D05D
:101020002078C04DC00749D06868C0F3810001280E
:1010300007D06868C0F38100022809D16868C0033E
:1010400006D52868800339D560680028E7D035E0E8
:101050006068B0F5803F0BD010B1B0F5A02F11D073
:10106000286820F480302860286820F4802002E07E
:10107000286840F480302860606890B1FFF768FD10
:1010800006460AE0286840F480202860F0E700BFA8
:10109000FFF75EFD801B642873D828688003F7D5AE
:1010A0000CE0FFF755FD064605E000BFFFF750FDD9
:1010B000801B6428F0D828688003F7D420789A4EE3
:1010C00080074FF001094FF0000839D5686810F02B
:1010D0000C0F07D06868C0F38100022809D1686846
:1010E000C00306D42868800714D52069012808D1D8
:1010F00010E02069B0B1C6F80090FFF729FD07465F
:1011000005E00AE1FFF724FDC01B0228C4D82868C7
:101110008007F7D52868616920F0F80040EAC1002F
:1011200028600DE0C6F80080FFF712FD074604E0D6
:10113000FFF70EFDC01B022823D828688007F7D4CC
:10114000207800072CD57948A169D9B1C0F8009062
:10115000FFF7FEFC074604E0FFF7FAFCC01B02287D
:101160000FD8686A8007F7D571484FF4FA510068C4
:10117000B0FBF1F0009000BF0098411E0091FAD240
:101180000EE080E0C0F80080FFF7E2FC074604E0D4
:10119000FFF7DEFCC01B022875D8686A8007F7D409
:1011A0002078400760D5E8690027C00008D4E869C6
:1011B00040F08050E861E869012700F0805000901D
:1011C0005C480168C90513D40168834641F4807105
:1011D0000160FFF7BDFC824606E000BFFFF7B8FCE8
:1011E000A0EB0A0064284ED8DBF80000C005F5D556
:1011F000E06801280AD008B1052813D0286A20F039
:1012000001002862286A20F0040002E0286A40F009
:1012100001002862E06841F2883B98B1FFF798FC32
:1012200082460BE0286A40F004002862EEE700BF27
:10123000FFF78EFCA0EB0A0159455AD8286A8007AF
:10124000F6D50CE0FFF784FC824605E0FFF780FC52
:10125000A0EB0A0159454CD8286A8007F6D41FB183
:10126000E86920F08050E861E06988B36968C1F3FB
:101270008101022944D00228C6F8608004D0FFF71B
:1012800067FC044638E034E0FFF762FC074604E000
:10129000FFF75EFCC01B02282BD828688001F7D41A
:1012A000206AB0F5803F05D16868A16820F400305D
:1012B00008436860D4E908010843696821F474119F
:1012C00008436860C6F86090FFF742FC044606E0F9
:1012D00025E000BFFFF73CFC001B022809D8286866
:1012E0008001F7D51BE000BFFFF732FC001B02288E
:1012F00002D90320BDE8F88F28688001F4D40EE0FD
:101300000128F7D06868226A00F48031914204D144
:10131000616A00F47010884201D00120EAE70020E1
:10132000E8E7000000100240000042428004424210
:101330000C00002000700040704770B5040009D018
:10134000606A002540B125616561A56294F851008D
:1013500040B10CE0012070BD6068B0F5827FF4D030
:10136000E561F2E784F85050204600F03FF8022093
:1013700084F851002068016821F040010160A088D4
:10138000218900F4827001F404410843A18901F429
:1013900000610843217C01F002010843217D01F036
:1013A00001010843218B01F400710843217F01F002
:1013B0003801084394F8201001F080010843218D82
:1013C00001F40051084321680860A069042101EA82
:1013D0001040216848602068C16921F40061C16142
:1013E0006565012084F85100002070BDF0B585B01E
:1013F000002506460095019502950395006822494F
:1014000088423FD12148816941F4805181618169DD
:1014100001F480510491816941F008018161806982
:101420001B4C00F00800049028200090022001903E
:101430000320039069462046FFF794FA1027CDE970
:101440000075694620460295FFF78CFA11484168FD
:1014500041F0E06141F001014160104C0E48C4E9E7
:1014600000078020C4E90250400020618000C4E9E8
:1014700005052046E561FFF7FDF908B1FEF708FF15
:10148000B464666205B0F0BD003001400010024057
:10149000000C014000000140300002409C00002090
:1014A0002DE9F041044690F850000026012809D0AB
:1014B000012784F8507094F851000025012804D0C9
:1014C00002264EE00220BDE8F08189B182B10320FE
:1014D00084F8510065652163A286E286A563656490
:1014E0002564A587E587A068B0F5004F02D00BE022
:1014F000012636E02068016821F040010160206883
:10150000016841F480410160A16C1848C862A16C77
:1015100017488862A16C17480863A06C4563E38E86
:101520002268216B0C32A06CFFF7D2F938B1606DE4
:1015300040F010006065012684F8517011E02068C9
:101540000168490603D4016841F040010160206848
:10155000416841F0200141602068416841F002018A
:10156000416084F850503046ADE70000C1180008D3
:10157000CB1800089F1800087047704710B5401E30
:10158000B0F1807F01D3012010BD4FF0E0246061F5
:101590000F21601700F00CFB0020A06107202061E4
:1015A000002010BD70B5040004D094F83900002567
:1015B00010B106E0012070BD84F83850204600F0DC
:1015C00023F8242084F839002068C16821F40051F0
:1015D000C160204600F04CFA2068016921F4904176
:1015E00001612068416921F02A0141612068C168D8
:1015F00041F40051C160E563202084F8390084F88B
:101600003A00002070BD000030B585B00024009481
:1016100001940294039400681449884224D1144828
:10162000816941F480418161816901F480410491C3
:10163000816941F00401816180690E4D00F0040070
:1016400004904FF40070009002200190032003905A
:1016500069462846FFF786F92815CDE90004694652
:1016600028460294FFF77EF905B030BD00380140EE
:1016700000100240000801402DE9F843044690F8AC
:1016800039001F4616460D4620284CD1C5B1BEB1C3
:1016900094F83800012846D0012084F838004FF033
:1016A0000008C4F83C80212084F83900FFF750FA84
:1016B000A6848146E684A068B0F5805F03D004E08C
:1016C0000120BDE8F883206928B12E465FF00005AF
:1016D00084F838800EE00026FAE78021204600F0EA
:1016E00023FAA0B9AEB116F8010B21684860E08C6E
:1016F000401EE084E08C4B464FF00002009700282B
:10170000EBD14FF04001204600F00EFA30B103203B
:10171000D7E735F8020BC0F30800E6E7202084F88D
:1017200039000020CDE70220CBE7FEE73EB50024DC
:1017300011480094019402940E49846001600125CF
:10174000057304754FF460214460C1610A21016191
:10175000FEF724FE08B1FEF79BFDCDE90045694682
:1017600005480294FEF796FD002801D0FEF790FD93
:101770003EBD00000024014014000020094808B5C7
:10178000416941F0010141614069002200F001001E
:10179000009011460D20FFF747FABDE808400D20E4
:1017A000FFF734BA0010024070B586B00024184824
:1017B0000094019402940394816941F020018161B5
:1017C000816901F020010491816941F00401816186
:1017D000816901F004010491816941F0080181618E
:1017E00080690C4E00F008004FF400450490002280
:1017F00029463046FFF7A6F901200095CDE90104FE
:101800000320039069463046FFF7ACF806B070BD80
:1018100000100240000C0140104810B50E49016054
:101820004FF48271416000214FF40062C0E902125E
:1018300092100161C0E905120822C0E90721416246
:1018400081620A21C162FFF778FD002803D0BDE85C
:101850001040FEF71DBD10BD0030014044000020C7
:101860000C4810B50A4901604FF4E1314160002194
:1018700081600C22C160C0E904128161C161FFF77F
:1018800091FE002803D0BDE81040FEF701BD10BD59
:1018900000380140E0000020FEE77047704710B5B7
:1018A000406A01684A6822F003024A60416D41F0D3
:1018B00010014165012180F85110FFF73DFD10BD79
:1018C00010B5406AFFF759FE10BD38B50546446AA9
:1018D000FFF73EF9024628680068800623D4206896
:1018E000416821F0200141602068416821F0020137
:1018F00041606421204600F01AF818B1606D40F094
:1019000020006065A068002118B92068C26880685E
:101910000090E186012084F85100606D18B12046E6
:10192000FFF70AFD38BD2046FFF726FE38BD38B563
:101930000B46009204460022802100F009F800289E
:1019400004D0606D40F020006065032038BD0000C9
:101950002DE9F8431E46914688460446089DFFF748
:10196000F7F8401B351AFFF7F3F8074625480068DB
:10197000C0F3CB30684338E0701C37D0FFF7E8F88D
:10198000C01BA84203D215B1009860B32CE02068B8
:10199000416821F0E00141606068B0F5827F0BD1C1
:1019A000A068B0F5004F02D0B0F5806F04D1206878
:1019B000016821F040010160A06AB0F5005F09D123
:1019C0002068016821F4005101602068016841F439
:1019D00000510160012084F85100002084F850007B
:1019E0000320BDE8F8830025401E00902068816830
:1019F00038EA010004D000214945BDD10020F0E7BC
:101A00000121F9E70C0000207047FFF7A7B830B5B7
:101A100093B028216846FEF78CFB14210AA8FEF734
:101A200088FB002401200F94109411940104129457
:101A30008DE8130004904FF4E010CDE90810022562
:101A400007956846FFF7E8FA0F20CDE90A05680216
:101A5000CDE90C4002210AA80E94FFF7F1F9A80382
:101A600011900F950FA8FFF775F913B030BD7047AF
:101A700070B5044600680169E26821F440511143E1
:101A800001612169A0680843616908432168CA6847
:101A900041F20C639A430243CA6020684169A2691B
:101AA00021F44071114341611E492068884202D1EE
:101AB000FFF76CFA01E0FFF759FA00EBC00101EB08
:101AC0000012606864218000B2FBF0F3B3FBF1F315
:101AD0006FF018067343B2FBF0F5B2FBF0F605EBBE
:101AE0008305322303EB0515B5FBF1F5B6FBF1F6E3
:101AF00005F0F00505EB0615B2FBF0F6B2FBF0F0D1
:101B0000B0FBF1F06FF01802504306EB800003EBDE
:101B10000010B0FBF1F0216800F00F00284488604D
:101B200070BD0000003801402DE9F041984617468D
:101B30000E460446069D1DE0681C1BD02DB1FFF724
:101B400007F8A0EB0800A84214D92068C16821F466
:101B5000D071C1602068416921F0010141612020FC
:101B600084F8390084F83A00002084F83800032013
:101B7000BDE8F0812068006836EA000004D000204B
:101B8000B842D9D00020F3E70120F9E7FEE70000D2
:101B90000FB4054B10B503A9044A029800F028F8C9
:101BA00010BC5DF814FB0000451D0008100000206B
:101BB0000907090E002804DB00F1E02080F800147A
:101BC000704700F00F0000F1E02080F8141D70470E
:101BD00002E008C8121F08C1002AFAD170477047F6
:101BE000002001E001C1121F002AFBD17047000054
:101BF0002DE9FF4F89B09B460446002506E02528C5
:101C00000BD05A460B999047641C6D1C2078002815
:101C1000F5D10DB02846BDE8F08F0027B846012267
:101C2000474900E0074314F8013F203B02FA03F064
:101C30000842F7D120782E2819D114F8010F47F067
:101C400004072A280ED06FF02F022078A0F130016F
:101C500009290CD808EB880102EB410100EB0108CF
:101C6000641CF2E70A98641C50F8048B0A902078F0
:101C70000028CED0642808D0692806D075281ED048
:101C80005A460B9990476D1C58E00A994FF00A0983
:101C900001C90A91002802DA40422D2102E03905EB
:101CA00004D52B218DF82010012103E0F90704D081
:101CB0002021F7E78A4608AE0DE00021FAE70A99ED
:101CC0004FF00A0901C90A91F7E74946FEF73CFAC5
:101CD000303106F8011D0028F7D1ADEB060000F108
:101CE0002009780701D44FF00108C84502DDA8EBB0
:101CF000090000E000208046002706E008A85A46B8
:101D0000C05D0B9990476D1C7F1C5745F6DB04E0C6
:101D100030205A460B9990476D1CB8F10001A8F18C
:101D20000108F5DC05E016F8010B5A460B999047BF
:101D30006D1CB9F10001A9F10109F4DC641C65E72F
:101D40000928010038B504468DF80000022301225D
:101D500069460248FFF790FC204638BDE0000020AD
:101D600086B0FEF703FFFFF752FEFFF71DFDFFF7FA
:101D700005FDFFF775FDFFF7D9FCFFF74DFD1AA034
:101D8000FFF706FFC820FEF7DBFD1948FEF768FCE9
:101D90000A211748FEF7CCFB00241548FEF760FC2B
:101DA0000A211348FEF7C4FB1148FEF7F3FA82B28A
:101DB000214610A0FFF7ECFE1420FEF7C1FD641CC5
:101DC0000A2CEADB0DA0FFF7E3FE4FF4FA70FEF7F2
:101DD000B7FD0748FEF7DCFA8005D0D50122694639
:101DE0000748FFF75DFBCAE768616C6C6F00000095
:101DF0001400002025643D2564090A000D0A000036
:101E00004400002000000000000000000102030464
:101E10000607080900000000010203043C1E000838
:101E20000000002014000000D01B0008501E000815
:101E3000140000200C050000E01B00080100000059
:101E400010000000000000000024F400000000006A
:04000005080000ED02
:00000001FF
